{
  "_format": "hh-sol-artifact-1",
  "contractName": "buyMeCoffee",
  "sourceName": "contracts/BuyMeCoffee.sol",
  "abi": [
    {
      "inputs": [],
      "stateMutability": "nonpayable",
      "type": "constructor"
    },
    {
      "inputs": [
        {
          "internalType": "string",
          "name": "name",
          "type": "string"
        },
        {
          "internalType": "string",
          "name": "message",
          "type": "string"
        }
      ],
      "name": "buyCoffee",
      "outputs": [],
      "stateMutability": "payable",
      "type": "function"
    },
    {
      "inputs": [],
      "name": "getMemos",
      "outputs": [
        {
          "components": [
            {
              "internalType": "string",
              "name": "name",
              "type": "string"
            },
            {
              "internalType": "string",
              "name": "message",
              "type": "string"
            },
            {
              "internalType": "address",
              "name": "from",
              "type": "address"
            }
          ],
          "internalType": "struct buyMeCoffee.Memo[]",
          "name": "",
          "type": "tuple[]"
        }
      ],
      "stateMutability": "view",
      "type": "function"
    }
  ],
  "bytecode": "0x608060405234801561001057600080fd5b5033600160006101000a81548173ffffffffffffffffffffffffffffffffffffffff021916908373ffffffffffffffffffffffffffffffffffffffff160217905550610b37806100616000396000f3fe6080604052600436106100295760003560e01c8063204206e11461002e578063865c51721461004a575b600080fd5b61004860048036038101906100439190610529565b610075565b005b34801561005657600080fd5b5061005f6101f6565b60405161006c919061077a565b60405180910390f35b600034116100b8576040517f08c379a00000000000000000000000000000000000000000000000000000000081526004016100af906107f9565b60405180910390fd5b600160009054906101000a900473ffffffffffffffffffffffffffffffffffffffff1673ffffffffffffffffffffffffffffffffffffffff166108fc349081150290604051600060405180830381858888f19350505050158015610120573d6000803e3d6000fd5b50600060405180606001604052808481526020018381526020013373ffffffffffffffffffffffffffffffffffffffff16815250908060018154018082558091505060019003906000526020600020906003020160009091909190915060008201518160000190816101929190610a2f565b5060208201518160010190816101a89190610a2f565b5060408201518160020160006101000a81548173ffffffffffffffffffffffffffffffffffffffff021916908373ffffffffffffffffffffffffffffffffffffffff16021790555050505050565b60606000805480602002602001604051908101604052809291908181526020016000905b828210156103c6578382906000526020600020906003020160405180606001604052908160008201805461024d90610848565b80601f016020809104026020016040519081016040528092919081815260200182805461027990610848565b80156102c65780601f1061029b576101008083540402835291602001916102c6565b820191906000526020600020905b8154815290600101906020018083116102a957829003601f168201915b505050505081526020016001820180546102df90610848565b80601f016020809104026020016040519081016040528092919081815260200182805461030b90610848565b80156103585780601f1061032d57610100808354040283529160200191610358565b820191906000526020600020905b81548152906001019060200180831161033b57829003601f168201915b505050505081526020016002820160009054906101000a900473ffffffffffffffffffffffffffffffffffffffff1673ffffffffffffffffffffffffffffffffffffffff1673ffffffffffffffffffffffffffffffffffffffff16815250508152602001906001019061021a565b50505050905090565b6000604051905090565b600080fd5b600080fd5b600080fd5b600080fd5b6000601f19601f8301169050919050565b7f4e487b7100000000000000000000000000000000000000000000000000000000600052604160045260246000fd5b610436826103ed565b810181811067ffffffffffffffff82111715610455576104546103fe565b5b80604052505050565b60006104686103cf565b9050610474828261042d565b919050565b600067ffffffffffffffff821115610494576104936103fe565b5b61049d826103ed565b9050602081019050919050565b82818337600083830152505050565b60006104cc6104c784610479565b61045e565b9050828152602081018484840111156104e8576104e76103e8565b5b6104f38482856104aa565b509392505050565b600082601f8301126105105761050f6103e3565b5b81356105208482602086016104b9565b91505092915050565b600080604083850312156105405761053f6103d9565b5b600083013567ffffffffffffffff81111561055e5761055d6103de565b5b61056a858286016104fb565b925050602083013567ffffffffffffffff81111561058b5761058a6103de565b5b610597858286016104fb565b9150509250929050565b600081519050919050565b600082825260208201905092915050565b6000819050602082019050919050565b600081519050919050565b600082825260208201905092915050565b60005b838110156106075780820151818401526020810190506105ec565b60008484015250505050565b600061061e826105cd565b61062881856105d8565b93506106388185602086016105e9565b610641816103ed565b840191505092915050565b600073ffffffffffffffffffffffffffffffffffffffff82169050919050565b60006106778261064c565b9050919050565b6106878161066c565b82525050565b600060608301600083015184820360008601526106aa8282610613565b915050602083015184820360208601526106c48282610613565b91505060408301516106d9604086018261067e565b508091505092915050565b60006106f0838361068d565b905092915050565b6000602082019050919050565b6000610710826105a1565b61071a81856105ac565b93508360208202850161072c856105bd565b8060005b85811015610768578484038952815161074985826106e4565b9450610754836106f8565b925060208a01995050600181019050610730565b50829750879550505050505092915050565b600060208201905081810360008301526107948184610705565b905092915050565b600082825260208201905092915050565b7f506c6561736520706179206774652030206574682e0000000000000000000000600082015250565b60006107e360158361079c565b91506107ee826107ad565b602082019050919050565b60006020820190508181036000830152610812816107d6565b9050919050565b7f4e487b7100000000000000000000000000000000000000000000000000000000600052602260045260246000fd5b6000600282049050600182168061086057607f821691505b60208210810361087357610872610819565b5b50919050565b60008190508160005260206000209050919050565b60006020601f8301049050919050565b600082821b905092915050565b6000600883026108db7fffffffffffffffffffffffffffffffffffffffffffffffffffffffffffffffff8261089e565b6108e5868361089e565b95508019841693508086168417925050509392505050565b6000819050919050565b6000819050919050565b600061092c610927610922846108fd565b610907565b6108fd565b9050919050565b6000819050919050565b61094683610911565b61095a61095282610933565b8484546108ab565b825550505050565b600090565b61096f610962565b61097a81848461093d565b505050565b5b8181101561099e57610993600082610967565b600181019050610980565b5050565b601f8211156109e3576109b481610879565b6109bd8461088e565b810160208510156109cc578190505b6109e06109d88561088e565b83018261097f565b50505b505050565b600082821c905092915050565b6000610a06600019846008026109e8565b1980831691505092915050565b6000610a1f83836109f5565b9150826002028217905092915050565b610a38826105cd565b67ffffffffffffffff811115610a5157610a506103fe565b5b610a5b8254610848565b610a668282856109a2565b600060209050601f831160018114610a995760008415610a87578287015190505b610a918582610a13565b865550610af9565b601f198416610aa786610879565b60005b82811015610acf57848901518255600182019150602085019450602081019050610aaa565b86831015610aec5784890151610ae8601f8916826109f5565b8355505b6001600288020188555050505b50505050505056fea2646970667358221220d96b507da785b44eb678decf40848911a0c4e1b35897effe2c8f8ed9f955becc64736f6c63430008120033",
  "linkReferences": {},
  "deployedLinkReferences": {}
}